:100000000C9462000C947F000C947F000C947F0091
:100010000C947F000C947F000C947F000C94D10210
:100020000C947F000C947F000C947F000C947F0054
:100030000C947F000C947F000C947F000C947F0044
:100040000C9487020C947F000C947F000C947F002A
:100050000C947F000C947F000C947F000C947F0024
:100060000C947F000C947F00000000002300260009
:10007000290000000000240027002A0000000008DA
:10008000000201000003040700000000000000005F
:10009000010204081020408001020408102001021F
:1000A0000408102000000000250028002B00040494
:1000B0000404040404040202020202020303030310
:1000C0000303020011241FBECFEFD8E0DEBFCDBF77
:1000D00011E0A0E0B1E0E0E8F7E002C005900D9289
:1000E000A230B107D9F721E0A2E0B1E001C01D9232
:1000F000AC31B207E1F70E942D030C94BE030C94BF
:100100000000833081F028F4813099F08230A1F032
:1001100008958730A9F08830B9F08430D1F4809107
:1001200080008F7D03C0809180008F778093800056
:10013000089584B58F7702C084B58F7D84BD0895FE
:100140008091B0008F7703C08091B0008F7D809345
:10015000B00008951F93CF93DF93282F30E0F9016B
:10016000E458FF4F8491F901E057FF4FD491F90112
:10017000E255FF4FC491CC23C1F0162F81110E948C
:100180008100EC2FF0E0EE0FFF1FEC55FF4FA59123
:10019000B4919FB7F894111104C08C91D095D823D5
:1001A00002C0EC91DE2BDC939FBFDF91CF911F91BA
:1001B0000895CF93DF9390E0FC01E057FF4F249127
:1001C000FC01E255FF4F8491882361F190E0880F94
:1001D000991FFC01EE58FF4FC591D491FC01EC55DD
:1001E000FF4FA591B491611109C09FB7F894888120
:1001F000209582238883EC912E230BC0623061F41A
:100200009FB7F8948881322F309583238883EC91AF
:100210002E2B2C939FBF06C08FB7F894E8812E2B0E
:1002200028838FBFDF91CF910895CF9390910001E4
:10023000891721F09F3F09F0E0C004C0E2ECF0E034
:10024000C4917DC080930001E2ECF0E0E491EF3FC7
:1002500009F4D3C0E13009F44CC060F1E23009F098
:100260006DC01092B0001092B1009091B0009260F9
:100270009093B0009091B10091609093B100282FBD
:1002800030E0F901E255FF4FE491F0E0EE0FFF1F7F
:10029000EC55FF4F4591549150930D0140930C0143
:1002A000F901E057FF4FE491E0930B0161E00E94F8
:1002B000D9009BC014BC15BC94B5926094BD95B593
:1002C000916095BD282F30E0F901E255FF4FE49190
:1002D000F0E0EE0FFF1FEC55FF4F45915491F901EF
:1002E000E057FF4FE491E0930F0161E00E94D900D5
:1002F00065C01092800010928100909181009860FA
:100300009093810090918100916090938100282FBB
:1003100030E0F901E255FF4FE491F0E0EE0FFF1FEE
:10032000EC55FF4F45915491F901E057FF4FE4918F
:10033000E0930E0161E00E94D9000DC0CE2FC7FDF1
:100340005CC061E00E94D900CC23C1F1C23009F445
:100350004CC0C130E9F480918100887F8160809336
:10036000810087EF95E290938900809388008FEF5A
:100370009FEFDC018093140190931501A093160167
:10038000B093170180916F00826080936F0035C039
:10039000C23099F587EF8093B3008FEF9FEFDC01B8
:1003A0008093100190931101A0931201B093130157
:1003B000809170008260809370001FC085B5887F37
:1003C000836085BD86E987BD8FEF9FEFDC01809359
:1003D000180190931901A0931A01B0931B01809109
:1003E0006E00826080936E0008C08091B100887FAB
:1003F00084608093B10086E9CECFCF9108953FB756
:10040000F8948091070190910801A0910901B091A1
:100410000A0126B5A89B05C02F3F19F00196A11D22
:10042000B11D3FBFBA2FA92F982F8827820F911D8A
:10043000A11DB11DBC01CD0142E0660F771F881FD1
:10044000991F4A95D1F708958F929F92AF92BF92CC
:10045000CF92DF92EF92FF920E94FF014B015C016D
:1004600080E4C82E8FE1D82EE12CF12C0E94FF01F0
:10047000DC01CB0188199909AA09BB09883E934080
:10048000A105B10598F321E0C21AD108E108F108ED
:1004900088EE880E83E0981EA11CB11CC114D10403
:1004A000E104F10419F7FF90EF90DF90CF90BF9037
:1004B000AF909F908F90089590910001891324C070
:1004C000E2ECF0E0E4919FEF90930001E130B9F0AD
:1004D00098F0E230C9F4909170009D7F9093700085
:1004E00091E09093B0009091B100987F94609093C8
:1004F000B1001092B30008C010926E0005C0909138
:100500006F009D7F90936F0060E00C94AA001F9293
:100510000F920FB60F9211242F933F938F939F93B7
:10052000AF93BF938091030190910401A0910501C5
:10053000B09106013091020123E0230F2D3720F402
:100540000196A11DB11D05C026E8230F0296A11D2D
:10055000B11D209302018093030190930401A093A5
:100560000501B09306018091070190910801A091C7
:100570000901B0910A010196A11DB11D80930701E7
:1005800090930801A0930901B0930A01BF91AF9124
:100590009F918F913F912F910F900FBE0F901F90C1
:1005A00018951F920F920FB60F9211242F933F931D
:1005B0004F935F936F937F938F939F93AF93BF936B
:1005C000EF93FF938091100190911101A09112017E
:1005D000B0911301892B8A2B8B2B51F190910B0138
:1005E000E0910C01F0910D01808189278083809139
:1005F000100190911101A0911201B09113011816F0
:1006000019061A061B06C4F480911001909111017D
:10061000A0911201B09113010197A109B109809332
:10062000100190931101A0931201B093130104C023
:10063000809100010E945C02FF91EF91BF91AF9108
:100640009F918F917F916F915F914F913F912F91EA
:100650000F900FBE0F901F901895789484B582600C
:1006600084BD84B5816084BD85B5826085BD85B556
:10067000816085BD80916E00816080936E001092D4
:10068000810080918100826080938100809181004F
:1006900081608093810080918000816080938000E0
:1006A0008091B10084608093B1008091B00081603E
:1006B0008093B00080917A00846080937A0080916A
:1006C0007A00826080937A0080917A0081608093C2
:1006D0007A0080917A00806880937A001092C1003D
:1006E00061E089E00E94D90061E086E00E94D900C3
:1006F00060E087E00E94D900C3E8D0E007E910E09D
:1007000095EBE92E90E0F92E20E0C22E20E0D22ECB
:10071000FE018491F801A490F701B490BB2031F15F
:1007200081110E948100EB2DF0E0EE0FFF1FE859D0
:10073000FF4FA591B4918C918A21C1F061E086E0D0
:100740000E94AA0089E00E9415010E94240261E033
:1007500086E00E94AA0089E00E9415010E942402FE
:10076000C114D104A9F20E940000D2CF60E086E05B
:100770000E94AA0089E00E945C02F2CFF894FFCFA9
:02078000FF0078
:107E0000112484B714BE81FFF0D085E080938100F7
:107E100082E08093C00088E18093C10086E0809377
:107E2000C20080E18093C4008EE0C9D0259A86E02C
:107E300020E33CEF91E0309385002093840096BBD3
:107E4000B09BFECF1D9AA8958150A9F7CC24DD24C4
:107E500088248394B5E0AB2EA1E19A2EF3E0BF2EE7
:107E6000A2D0813461F49FD0082FAFD0023811F036
:107E7000013811F484E001C083E08DD089C08234E0
:107E800011F484E103C0853419F485E0A6D080C0E4
:107E9000853579F488D0E82EFF2485D0082F10E0AE
:107EA000102F00270E291F29000F111F8ED06801E7
:107EB0006FC0863521F484E090D080E0DECF843638
:107EC00009F040C070D06FD0082F6DD080E0C81688
:107ED00080E7D80618F4F601B7BEE895C0E0D1E017
:107EE00062D089930C17E1F7F0E0CF16F0E7DF06D8
:107EF00018F0F601B7BEE89568D007B600FCFDCFD4
:107F0000A601A0E0B1E02C9130E011968C91119780
:107F100090E0982F8827822B932B1296FA010C0160
:107F200087BEE89511244E5F5F4FF1E0A038BF0790
:107F300051F7F601A7BEE89507B600FCFDCF97BE46
:107F4000E89526C08437B1F42ED02DD0F82E2BD052
:107F50003CD0F601EF2C8F010F5F1F4F84911BD097
:107F6000EA94F801C1F70894C11CD11CFA94CF0C13
:107F7000D11C0EC0853739F428D08EE10CD085E9AC
:107F80000AD08FE07ACF813511F488E018D01DD067
:107F900080E101D065CF982F8091C00085FFFCCF94
:107FA0009093C60008958091C00087FFFCCF809118
:107FB000C00084FD01C0A8958091C6000895E0E648
:107FC000F0E098E1908380830895EDDF803219F02E
:107FD00088E0F5DFFFCF84E1DECF1F93182FE3DFCA
:107FE0001150E9F7F2DF1F91089580E0E8DFEE27F6
:047FF000FF270994CA
:027FFE00040479
:0400000300007E007B
:00000001FF
