:100000000C946A000C94D5050C94AE050C949200E7
:100010000C9492000C9492000C9492000C94FC05A9
:100020000C9492000C9492000C9492000C94B006E4
:100030000C9492000C9492000C9492000C949200F8
:100040000C940A0A0C9492000C947E060C945806A8
:100050000C9492000C9492000C9492000C949200D8
:100060000C9492000C9492000000010008004000E3
:1000700000010004050D00000000230026002900F7
:1000800000000000240027002A00000000080002F1
:10009000010000030407000000000000000001024E
:1000A0000408102040800102040810200102040806
:1000B000102000000000250028002B000404040488
:1000C0000404040402020202020203030303030302
:1000D00002002C0B11241FBECFEFD8E0DEBFCDBF36
:1000E00011E0A0E0B1E0E2EDF7E102C005900D9271
:1000F000AA38B107D9F723E0AAE8B1E001C01D9200
:10010000A834B207E1F710E0CAE6D0E004C02197B6
:10011000FE010E94D30BC936D107C9F70E94540AC9
:100120000C94E70B0C9400000895CF92DF92EF92AD
:10013000FF920F931F93CF93DF936C017A018B0192
:10014000C0E0D0E0CE15DF0581F0D8016D918D01C2
:10015000D601ED91FC910190F081E02DC601099549
:10016000892B11F02196EECF7E01C701DF91CF914F
:100170001F910F91FF90EF90DF90CF900895089519
:1001800080E090E00895FC01538D448D252F30E0F0
:10019000842F90E0821B930B541710F0CF96089594
:1001A00001970895FC01918D828D981761F0828DE1
:1001B000DF01A80FB11D5D968C91928D9F5F9F739B
:1001C000928F90E008958FEF9FEF0895FC01918D3D
:1001D000828D981731F0828DE80FF11D858D90E0AA
:1001E00008958FEF9FEF0895FC01918D228D892F47
:1001F00090E0805C9F4F821B91098F73992708952F
:1002000088E991E00E94F40021E0892B09F420E0C4
:10021000822F0895FC01848DDF01A80FB11DA35A20
:10022000BF4F2C91848D90E001968F739927848F16
:10023000A689B7892C93A089B1898C918370806439
:100240008C93938D848D981306C00288F389E02DDA
:1002500080818F7D80830895EF92FF920F931F938B
:10026000CF93DF93EC0181E0888F9B8D8C8D981369
:1002700005C0E889F989808185FD26C0F62E0B8DA1
:1002800010E00F5F1F4F0F731127E02E8C8DE812C7
:100290000CC00FB607FCFACFE889F989808185FF89
:1002A000F5CFCE010E940A01F1CF8B8DFE01E80F40
:1002B000F11DE35AFF4FF0829FB7F8940B8FEA8944
:1002C000FB89808180620AC09FB7F894EE89FF891C
:1002D0006083E889F98980818370806480839FBF0F
:1002E00081E090E0DF91CF911F910F91FF90EF900F
:1002F0000895CF93DF93EC01888D8823C9F0EA89B4
:10030000FB89808185FD05C0A889B9898C9186FD0E
:100310000FC00FB607FCF5CF808185FFF2CFA8890B
:10032000B9898C9185FFEDCFCE010E940A01E7CFFC
:10033000DF91CF91089580E090E0892B29F00E9411
:10034000000181110C94000008958CE3089581E070
:1003500008959FB7F89480918A01882319F08150FD
:1003600080938A0180918A01811103C08CB58F7BB3
:100370008CBD9FBF08958CB58F778CBD08958CB5CB
:1003800080688CBD08956EBD00000DB407FEFDCFE2
:100390008EB50895FC01738362830895FC01778311
:1003A00066830895FC0175836483089580E0089551
:1003B000FC0181850895FC0180850895FC018781F9
:1003C0000895FC0186810895FC0140959585492397
:1003D000642B65870895FC0164870895FC01638799
:1003E0000895FC0162870895FC0164830895FC016F
:1003F00065830895CF92DF92EF92FF920F931F9340
:100400002FB7F894C0908D01D0908E01E0908F01AD
:10041000F09090012FBFAB0160E070E0EFB7F8946F
:1004200000918D0110918E0120918F0130919001EA
:10043000EFBF0C191D092E093F09041715072607E0
:10044000370740F4FC01228133812330310531F339
:1004500081E001C080E01F910F91FF90EF90DF904D
:10046000CF900895FC012281338123303105D1F3EF
:1004700081E008958F929F92AF92BF92CF92DF92C8
:10048000EF92FF92CF93DF93EC018FB7F8948090B7
:100490008D0190908E01A0908F01B09090018FBF40
:1004A0006B01E12CF12C2FB7F89480918D01909184
:1004B0008E01A0918F01B09190012FBF88199909E9
:1004C000AA09BB098C159D05AE05BF0550F4E8814E
:1004D000F9810280F381E02DCE010995882319F37B
:1004E00001C080E0DF91CF91FF90EF90DF90CF903F
:1004F000BF90AF909F908F900895CF93DF93EC01C2
:10050000E881F9810280F381E02DCE0109958823ED
:10051000B9F3DF91CF910895862740E1849F900140
:1005200011242827622F70E0562F4427292F30E00E
:10053000242B352BCB0144E0959587954A95E1F71F
:1005400028273927CB0153E0880F991F5A95E1F7E7
:1005500082279327089590910401891324C0E0ED28
:10056000F0E0E4919FEF90930401E130B9F098F04E
:10057000E230C9F4909170009D7F9093700091E0FB
:100580009093B0009091B100987F94609093B100E7
:100590001092B30008C010926E0005C090916F00D9
:1005A0009D7F90936F0060E00C9463085F926F9260
:1005B0007F928F929F92AF92BF92CF92DF92EF92F3
:1005C000FF920F931F93CF93DF934D3308F00BC12E
:1005D000042F5B01EC017C0125E7E20EF11C17E022
:1005E000140FE881F9810484F585E02D0995612FC8
:1005F0008FEF9FEF0E948C02E12FF0E074E0F59501
:10060000E7957A95E1F7E75FFE4F2081D7012C93BC
:1006100011961F70E12FF0E0E75FFE4F20812C93D1
:100620001A85612F0E948C02DE01A958BF4FE12F6D
:10063000F0E024E0F595E7952A95E1F7E75FFE4FB6
:1006400020812C9311961F70E12FF0E0E75FFE4FA1
:1006500020812C931B85612F0E948C02DE01A758FC
:10066000BF4FE12FF0E034E0F595E7953A95E1F7DB
:10067000E75FFE4F20812C9311961F70E12FF0E071
:10068000E75FFE4F20812C931C85612F0E948C0216
:10069000DE01A558BF4FE12FF0E044E0F595E79566
:1006A0004A95E1F7E75FFE4F20812C9311961F706A
:1006B000E12FF0E0E75FFE4F20812C931D85612F35
:1006C0000E948C02DE01A358BF4FE12FF0E054E0FE
:1006D000F595E7955A95E1F7E75FFE4F20812C935A
:1006E00011961F70E12FF0E0E75FFE4F20812C9301
:1006F0004701650110E0A00EB11EB2E08B0E911C07
:10070000AC14BD04F1F03601F60151906F01652D76
:100710000E948C02E52DF0E064E0F595E7956A957E
:10072000E1F7E75FFE4F2081D40118962C93D301A7
:10073000EC91EF70F0E0E75FFE4F2081F40121873C
:10074000DCCF0B5F1F4F000F111F80959095D701D5
:10075000A00FB11FFC0134E0F695E7953A95E1F75B
:10076000EF70FF27E75FFE4F20812C93FC01EF70B5
:10077000FF27E75FFE4F208111962C931197FC0114
:10078000EF2FFF27E295EF70E75FFE4F2081129673
:100790002C931297E92FFF27EF70FF27E75FFE4F9B
:1007A000808113968C93FE01E550FF4F045F008318
:1007B0008A819B81039789F0E159F1091082319672
:1007C0001082319610826B8D81E06827898D0E949E
:1007D000630883E090E09B838A83D0938C01C0936D
:1007E0008B0181E001C080E0DF91CF911F910F91DB
:1007F000FF90EF90DF90CF90BF90AF909F908F9041
:100800007F906F905F900895EF92FF921F93CF9328
:10081000DF93FC01228133812330310509F446C086
:10082000EC0182819381049761F0638D818D0E9438
:10083000630860E0888D0E94630884E090E09B83F9
:100840008A838C8D882381F110E08FEF9FEF7E01EA
:10085000F9E6EF0EF11CF7012081121740F4FE01BA
:10086000E10FF11D65A10E948C021F5FF4CF883B50
:10087000904F39F08F8598890196988B8F871D8EC0
:1008800012C08EA18E838FA18F8388A5888789A5AA
:1008900089878D8181110CC09E818C81981741F0D0
:1008A0008E818F3F29F01C8E8D8D0AC080E008C09C
:1008B00089899A8901969A8B898B81E08D8FF3CFF4
:1008C000DF91CF911F91FF90EF900895CF93FC019E
:1008D000268137812115310579F02130310541F02C
:1008E0002230310539F02330310531F49CE005C068
:1008F00094E003C098E001C090E08CB5837F982B12
:100900009CBD84819581019709F052C08CB58062AD
:100910008CBD8281938101978430910528F4FC017C
:10092000EB5FFE4F808101C081E09CB59C7F282F4A
:100930002370922B9CBD2DB582FB992790F9822FB5
:100940008E7F892B8DBDCFB7F89480918A0181115C
:1009500027C0E6ECF0E08491E8EAF0E09491E82F1B
:10096000F0E0EE0FFF1FE058FF4FA591B491EC911E
:10097000E92321F461E08AE00E94630861E08AE0F3
:100980000E94AA088CB580618CBD8CB580648CBD3A
:1009900061E08DE00E94AA0861E08BE00E94AA0855
:1009A00080918A018F5F80938A01CFBFCF91089594
:1009B0009CB59F7D9CBDADCF0E94D90BDF92EF927D
:1009C000FF920F931F93CF93DF93EC017B018A017A
:1009D000E881F9810280F381E02D0995D82E8823E2
:1009E000D1F0E114F104B1F00115110599F0FE0107
:1009F000E759FF4F80818750F8019081891708F4EB
:100A00008083F801408150E0BE01665D7F4FC701E1
:100A10000E94DE0B1D8E8D2DDF91CF911F910F91C6
:100A2000FF90EF90DF9008954F925F926F927F92C8
:100A3000AF92BF92CF92DF92EF92FF921F93CF932C
:100A4000DF9300D0CDB7DEB77C0190938C0180930B
:100A50008B0161E0FC01808D0E94AA0860E0F70133
:100A600087890E94AA0861E0F701818D0E94AA0887
:100A7000C7010E949208F701C588D688C114D10425
:100A800009F45BC0E12CF12C83E0CC0CDD1CEE1CE6
:100A9000FF1C8A95D1F79AE6A92E90E0B92E11E0B5
:100AA000412C24E2522E24EF622E712C42E050E0C1
:100AB000B501CE0101960E94A80B29813A8140E040
:100AC00050E0C301B2010E94B10BCA01B901A701F4
:100AD00096010E94B10BDA01C9010297A109B1097F
:100AE0008D3F9F4FA105B10538F01F5F62E0A60E54
:100AF000B11C1730D9F603C01630F9F00BC0223004
:100B0000310541055105C8F02115310581E048073F
:100B1000510598F41092800088E0809381008091C4
:100B20008100182B10938100309389002093880056
:100B300080916F00826080936F0081E00F900F9032
:100B4000DF91CF911F91FF90EF90DF90CF90BF90FA
:100B5000AF907F906F905F904F9008951F920F928B
:100B60000FB60F9211242F933F934F935F936F9380
:100B70007F938F939F93AF93BF93EF93FF93E091F6
:100B80000201F09103010995FF91EF91BF91AF919F
:100B90009F918F917F916F915F914F913F912F9195
:100BA0000F900FBE0F901F9018951F920F920FB6C7
:100BB0000F9211242F933F934F935F936F937F93E3
:100BC0008F939F93AF93BF93EF93FF93E0910001B7
:100BD000F09101010995FF91EF91BF91AF919F9124
:100BE0008F917F916F915F914F913F912F910F90D6
:100BF0000FBE0F901F9018951F920F920FB60F9275
:100C000011242F933F934F935F936F937F938F9311
:100C10009F93AF93BF93EF93FF9380919401909133
:100C20009501A0919601B0919701892B8A2B8B2B6E
:100C300051F190919101E0919201F09193018081A5
:100C4000892780838091940190919501A0919601CC
:100C5000B0919701181619061A061B06C4F4809164
:100C6000940190919501A0919601B09197010197FF
:100C7000A109B1098093940190939501A0939601E5
:100C8000B093970104C0809104010E94AB02FF91D0
:100C9000EF91BF91AF919F918F917F916F915F91F4
:100CA0004F913F912F910F900FBE0F901F9018956D
:100CB0001F920F920FB60F9211242F933F934F93D1
:100CC0005F936F937F938F939F93AF93BF93EF93B4
:100CD000FF9388E991E00E940A01FF91EF91BF9193
:100CE000AF919F918F917F916F915F914F913F91C4
:100CF0002F910F900FBE0F901F9018951F920F927B
:100D00000FB60F9211242F938F939F93EF93FF931E
:100D1000E091A801F091A9018081E091AE01F091EC
:100D2000AF0182FD12C090818091B1018F5F8F73FE
:100D30002091B201821751F0E091B101F0E0E85644
:100D4000FE4F958F8093B10101C08081FF91EF919B
:100D50009F918F912F910F900FBE0F901F9018951C
:100D60001F920F920FB60F921124CF92DF92EF9243
:100D7000FF920F931F932F933F934F935F936F9324
:100D80007F938F939F93AF93BF93CF93DF93EF9313
:100D9000FF93C0918B01D0918C018A819B81049734
:100DA00009F0C7C02F8930E0F901E657FF4F849161
:100DB000F901E256FF4F0491F901E454FF4F1491F9
:100DC000112379F081110E943A08E12FF0E0EE0F33
:100DD000FF1FEA58FF4FA591B491EC91E02381E009
:100DE00009F480E081709A8D892719F09F8D9F5FAB
:100DF0009F8F9E8D981759F098A1903510F09DE126
:100E000001C09BE028A1920F98A38E8F03C088A1F8
:100E10008C5E88A388A1803A08F4DCC08AA19BA1DB
:100E2000969587959BA38AA38F8D853028F08AA1FC
:100E30009BA198609BA38AA388A1805A88A31F8E38
:100E400089A1882309F468C08CA18F5F8CA38C30A2
:100E500008F4C0C08AA19BA1982F9F73892F869503
:100E60008695887028E0280F281749F0E82FF0E0D1
:100E7000E75FFE4F3081931719F08F5FF5CF80E069
:100E800020E1829FC00111242AA13BA196E0369562
:100E900027959A95E1F7422F369527953695279510
:100EA000287038E0320F321749F0E22FF0E0E75FA8
:100EB000FE4F5081451719F02F5FF5CF20E0822BB0
:100EC000AE0147595F4FFA019081DE01A859BF4F2B
:100ED0009923B1F0FA01908121E0290F20839E012E
:100EE000290F311DF90185A3FA0190818C91981782
:100EF00088F019A281E08C8FCE010E9492080AC06E
:100F00008C939C91973008F45FC09C91943408F0C6
:100F10005BC0E0CF1CA25EC08AA19BA188339B402E
:100F200009F058C081E089A31CA2C759DF4F18827D
:100F300051C08A819B81039709F04CC08E010459EE
:100F40001F4FF801808191E0980F9083811136C086
:100F50006E01FAE6CF0ED11CF6018081EF56FF4FED
:100F60009081891748F0CE010E9492088B899C8954
:100F700001969C8B8B8B22C0FE01E80FF11DE3597B
:100F8000FF4F608170E07E01FBE6EF0EF11CF70180
:100F9000808191E0980F908302C0759567958A953E
:100FA000E2F76170888D0E946308F70180818630C6
:100FB00028F01082F60180818F5F8083F8018081A4
:100FC000883040F0108206C019A28F85988901965A
:100FD000988B8F87FF91EF91DF91CF91BF91AF9168
:100FE0009F918F917F916F915F914F913F912F9141
:100FF0001F910F91FF90EF90DF90CF900F900FBE59
:101000000F901F9018953FB7F894809132039091FC
:101010003303A0913403B091350326B5A89B05C0D6
:101020002F3F19F00196A11DB11D3FBFBA2FA92F67
:10103000982F8827820F911DA11DB11DBC01CD01E4
:1010400042E0660F771F881F991F4A95D1F70895D0
:10105000009769F0FC0101900020E9F73197AF019A
:10106000481B590BBC0188E991E00C94950080E085
:1010700090E00895833081F028F4813099F0823037
:10108000A1F008958730A9F08830B9F08430D1F408
:10109000809180008F7D03C0809180008F77809346
:1010A0008000089584B58F7702C084B58F7D84BD9C
:1010B00008958091B0008F7703C08091B0008F7D3C
:1010C0008093B00008951F93CF93DF93282F30E0D3
:1010D000F901E657FF4F8491F901E256FF4FD49191
:1010E000F901E454FF4FC491CC23C1F0162F8111B4
:1010F0000E943A08EC2FF0E0EE0FFF1FEE54FF4F76
:10110000A591B4919FB7F894111104C08C91D0951A
:10111000D82302C0EC91DE2BDC939FBFDF91CF91EF
:101120001F910895CF93DF93FC01228133812230F8
:10113000310569F0EC01638D818D0E94630860E0E8
:10114000888D0E94630882E090E09B838A83DF9110
:10115000CF910895CF93DF9390E0FC01E256FF4FCB
:101160002491FC01E454FF4F8491882361F190E0C5
:10117000880F991FFC01E058FF4FC591D491FC01E5
:10118000EE54FF4FA591B491611109C09FB7F89437
:101190008881209582238883EC912E230BC06230B6
:1011A00061F49FB7F8948881322F30958323888328
:1011B000EC912E2B2C939FBF06C08FB7F894E8813B
:1011C0002E2B28838FBFDF91CF910895CF939091DD
:1011D0000401891721F09F3F09F0E0C004C0E0ED51
:1011E000F0E0C4917DC080930401E0EDF0E0E49173
:1011F000EF3F09F4D3C0E13009F44CC060F1E230B4
:1012000009F06DC01092B0001092B1009091B00042
:1012100092609093B0009091B10091609093B10072
:10122000282F30E0F901E454FF4FE491F0E0EE0F95
:10123000FF1FEE54FF4F45915491509393014093FB
:101240009201F901E256FF4FE491E093910161E0D0
:101250000E94AA089BC014BC15BC94B5926094BDB2
:1012600095B5916095BD282F30E0F901E454FF4F0A
:10127000E491F0E0EE0FFF1FEE54FF4F45915491C3
:10128000F901E256FF4FE491E093370361E00E94D9
:10129000AA0865C010928000109281009091810090
:1012A000986090938100909181009160909381006B
:1012B000282F30E0F901E454FF4FE491F0E0EE0F05
:1012C000FF1FEE54FF4F45915491F901E256FF4F35
:1012D000E491E093360361E00E94AA080DC0CE2F8E
:1012E000C7FD5CC061E00E94AA08CC23C1F1C230F6
:1012F00009F44CC0C130E9F480918100887F81609D
:10130000809381008AED91E2909389008093880018
:101310008FEF9FEFDC018093380390933903A09304
:101320003A03B0933B0380916F00826080936F001B
:1013300035C0C23099F58AED8093B3008FEF9FEFEF
:10134000DC018093940190939501A0939601B09352
:101350009701809170008260809370001FC085B5F6
:10136000887F836085BD86E887BD8FEF9FEFDC01B6
:1013700080933C0390933D03A0933E03B0933F03BF
:1013800080916E00826080936E0008C08091B100F1
:10139000887F84608093B10086E8CECFCF91089596
:1013A0008F929F92AF92BF92CF92DF92EF92FF9275
:1013B0006B017C010E9403084B015C01C114D10444
:1013C000E104F104F1F00E940308DC01CB0188196B
:1013D0009909AA09BB09883E9340A105B10570F39C
:1013E00021E0C21AD108E108F10888EE880E83E0F6
:1013F000981EA11CB11CC114D104E104F10419F719
:10140000DDCFFF90EF90DF90CF90BF90AF909F9097
:101410008F9008951F920F920FB60F9211242F9361
:101420003F938F939F93AF93BF9380918D01909142
:101430008E01A0918F01B09190013091310323E092
:10144000230F2D3720F40196A11DB11D05C026E8FC
:10145000230F0296A11DB11D2093310380938D01AE
:1014600090938E01A0938F01B093900180913203ED
:1014700090913303A0913403B09135030196A11DDF
:10148000B11D8093320390933303A0933403B09340
:101490003503BF91AF919F918F913F912F910F9005
:1014A0000FBE0F901F901895CF93DF93CDB7DEB787
:1014B0002C970FB6F894DEBF0FBECDBF789484B5DD
:1014C000826084BD84B5816084BD85B5826085BD40
:1014D00085B5816085BD80916E00816080936E00CE
:1014E00010928100809181008260809381008091C0
:1014F0008100816080938100809180008160809371
:1015000080008091B10084608093B1008091B00030
:1015100081608093B00080917A00846080937A002B
:1015200080917A00826080937A0080917A00816055
:1015300080937A0080917A00806880937A0010927C
:10154000C10085E392E00E941405E091A801F091AA
:10155000A90182E08083E091A401F091A5011082AD
:10156000E091A601F091A7018FEC80831092B00169
:10157000E091AC01F091AD0186E08083E091AA0199
:10158000F091AB01808180618083E091AA01F091AC
:10159000AB01808188608083E091AA01F091AB016A
:1015A000808180688083E091AA01F091AB01808105
:1015B0008F7D808360ED77E080E090E00E94D0092D
:1015C00060E08BE00E94AA0861E082E00E94AA0825
:1015D00061E083E00E94AA081BE01C8760ED77E0D1
:1015E00080E090E00E94D009AE01445F5F4FBE01F1
:1015F0006F5F7F4F85E392E00E94DE04882349F10C
:1016000083E791E00E942808CE0101960E942808F5
:1016100086E891E00E94280861E082E00E94630869
:1016200083E00E94E60868E873E180E090E00E94B1
:10163000D00983E00E94E60868E873E180E090E06A
:101640000E94D00983E00E94AB0260E082E00E9429
:1016500063080E949B01C1CFCF93DF93CDB7DEB764
:1016600028970FB6F894DEBF0FBECDBFE8E9F1E0D2
:101670001382128288EE93E0A0E0B0E08483958329
:10168000A683B78385E291E09183808385EC90E027
:101690009587848784EC90E09787868780EC90E03C
:1016A000918B808B81EC90E0938B828B82EC90E02D
:1016B000958B848B86EC90E0978B868B118E128EA7
:1016C000138E148EE0E4F3E01382128215821482EA
:1016D0001782168287E391E091838083E5E3F2E04D
:1016E000138212828FEF8483828783871486158604
:1016F000108A1786128A118A148A138A8BE491E061
:101700009183808380ED97E0968B858B8BE0878B30
:101710008CE0808F8AE0818F138E88E0E9E1F1E030
:10172000DE01119601900D928A95E1F788E0FE01A5
:101730003196A2EAB2E001900D928A95E1F72896DF
:101740000FB6F894DEBF0FBECDBFDF91CF910895E5
:10175000FB01DC0102C005900D9241505040D8F7CA
:101760000895A1E21A2EAA1BBB1BFD010DC0AA1FE2
:10177000BB1FEE1FFF1FA217B307E407F50720F0FA
:10178000A21BB30BE40BF50B661F771F881F991F75
:101790001A9469F760957095809590959B01AC01BE
:1017A000BD01CF010895EE0FFF1F0590F491E02DCC
:1017B000099481E090E0F8940C94E70BFB01DC01C4
:1017C00002C001900D9241505040D8F70895F8940E
:0217D000FFCF49
:1017D20094009400FF050004040D0E131516191A47
:1017E2001C232526292A2C32342A2A2A2A2A2A3854
:1017F2002C000000002C019500C3007901F400D2F6
:1018020000E60000000000C301BF01BB016604A99D
:1018120001D201CE01CA010000000014050404DE59
:1018220004D602A5017D023202FA013A02F401F164
:1018320001EE01EB01E401F701E101DE01DB01D878
:1018420001D6014D657373616765205265636569F1
:0A1852007665643A20000D0A0000DC
:107E0000112484B714BE81FFF0D085E080938100F7
:107E100082E08093C00088E18093C10086E0809377
:107E2000C20080E18093C4008EE0C9D0259A86E02C
:107E300020E33CEF91E0309385002093840096BBD3
:107E4000B09BFECF1D9AA8958150A9F7CC24DD24C4
:107E500088248394B5E0AB2EA1E19A2EF3E0BF2EE7
:107E6000A2D0813461F49FD0082FAFD0023811F036
:107E7000013811F484E001C083E08DD089C08234E0
:107E800011F484E103C0853419F485E0A6D080C0E4
:107E9000853579F488D0E82EFF2485D0082F10E0AE
:107EA000102F00270E291F29000F111F8ED06801E7
:107EB0006FC0863521F484E090D080E0DECF843638
:107EC00009F040C070D06FD0082F6DD080E0C81688
:107ED00080E7D80618F4F601B7BEE895C0E0D1E017
:107EE00062D089930C17E1F7F0E0CF16F0E7DF06D8
:107EF00018F0F601B7BEE89568D007B600FCFDCFD4
:107F0000A601A0E0B1E02C9130E011968C91119780
:107F100090E0982F8827822B932B1296FA010C0160
:107F200087BEE89511244E5F5F4FF1E0A038BF0790
:107F300051F7F601A7BEE89507B600FCFDCF97BE46
:107F4000E89526C08437B1F42ED02DD0F82E2BD052
:107F50003CD0F601EF2C8F010F5F1F4F84911BD097
:107F6000EA94F801C1F70894C11CD11CFA94CF0C13
:107F7000D11C0EC0853739F428D08EE10CD085E9AC
:107F80000AD08FE07ACF813511F488E018D01DD067
:107F900080E101D065CF982F8091C00085FFFCCF94
:107FA0009093C60008958091C00087FFFCCF809118
:107FB000C00084FD01C0A8958091C6000895E0E648
:107FC000F0E098E1908380830895EDDF803219F02E
:107FD00088E0F5DFFFCF84E1DECF1F93182FE3DFCA
:107FE0001150E9F7F2DF1F91089580E0E8DFEE27F6
:047FF000FF270994CA
:027FFE00040479
:0400000300007E007B
:00000001FF
